:100000000C9463000C948B000C948B000C948B006C
:100010000C948B000C948B000C948B000C948B0034
:100020000C948B000C948B000C948B000C948B0024
:100030000C948B000C948B000C948B000C948B0014
:100040000C94B9060C948B000C9441040C9473042A
:100050000C948B000C948B000C948B000C948B00F4
:100060000C948B000C948B0000000008000201002F
:100070000003040700000000000000000102040863
:100080001020408001020408102001020408102002
:10009000040404040404040402020202020203032E
:1000A00003030303000000002300260029000000D2
:1000B0000000250028002B0000000000240027007D
:1000C0002A00E900A30411241FBECFEFD8E0DEBF51
:1000D000CDBF11E0A0E0B1E0E2E7F5E102C005909C
:1000E0000D92A034B107D9F722E0A0E4B1E001C03D
:1000F0001D92A030B207E1F710E0C3E6D0E004C0E3
:100100002197FE010E94B10AC136D107C9F70E94AA
:10011000D1040C94B70A0C94000026E040E855E2A4
:1001200060E070E08AE591E00E94DC0388E491E001
:100130000C94110160E088E491E00E94CF0260938A
:10014000440170934501809346019093470140E03C
:1001500060E088E491E00E946E0260934001709339
:100160004101809342019093430160E071E08AE590
:1001700091E00E9420054091440150914501609119
:1001800046017091470122E030E08AE591E00E944B
:10019000B7066BE071E08AE591E00E94200540918E
:1001A000400150914101609142017091430122E070
:1001B00030E08AE591E00E94B70666E171E08AE5E9
:1001C00091E00E942D0560ED77E080E090E00C94D6
:1001D000340726E046E162E088E491E00C94F00008
:1001E000DC0115966C93159716964C93169770E054
:1001F000FB01E458FF4FE4911796EC931797FB012E
:10020000E057FF4F649118966C93189740E85EE3AF
:1002100060E070E01D964D935D936D937C935097D5
:100220000895CF93DF93EC0162E08D810E94DF0798
:1002300080E398EFAFEFBFEF89879A87AB87BC87E2
:10024000DF91CF9108958F929F92AF92BF92CF92FC
:10025000DF92EF92FF920F931F93CF93DC011796DB
:10026000CC911797662311F08C2F01C080E018966F
:100270002C91189730E0220F331F2C553F4F40E050
:1002800050E0BA01F90105911491F80190819C2385
:10029000981315C06A017B019FEFC91AD90AE90AB0
:1002A000F90A1D968D909D90AD90BC905097481581
:1002B00059056A057B0538F4B701A601E3CF342F51
:1002C000252FCB0104C030E020E080E090E0632FD8
:1002D000722FCF911F910F91FF90EF90DF90CF90F1
:1002E000BF90AF909F908F9008958F929F92AF9202
:1002F000BF92CF92DF92EF92FF920F931F93CF9313
:10030000DF93CDB7DEB7C054D1400FB6F894DEBF4F
:100310000FBECDBF8C01F62E0E940307F11016C050
:10032000F801C184D284E384F4849B01AC012C19CC
:100330003D094E095F0969017A0130EDC31637E0C6
:10034000D306E104F10410F48189B4C0F801618797
:10035000728783879487148213821282118210829B
:1003600061E085810E941B086AEF70E080E090E008
:100370000E94340761E0F80185810E94DF0760E098
:10038000F80185810E941B0864E170E080E090E044
:100390000E943407F89461E0F80185810E941B08EF
:1003A00088E290E00E94700762E0F80185810E9477
:1003B000DF078AE090E00E94700760E0C8010E94B9
:1003C0002301672B682B692B21F4F801118A78949B
:1003D00042C061E0C8010E942301672B682B692B92
:1003E000A1F39E012F5F3F4F79015E013FEBA31AFE
:1003F0003EEFB30A670160E0C8010E942301F601E5
:10040000608371838283938361E0C8010E9423012A
:10041000F6016483758386839783F8E0CF0ED11C41
:10042000CA14DB0441F7789420E030E0F701408102
:1004300051816281738184809580A680B780411547
:1004400051056105710529F081149104A104B104DD
:1004500021F4F801118A80E02DC0F90183E0F595BF
:10046000E7958A95E1F7E00FF11F8081880F481525
:1004700059056A057B0508F4816080832F5F3F4F33
:10048000F8E0EF0EF11C2832310581F6F8012481E5
:1004900030E04081818190E0840F911D4281840F82
:1004A000911D4381840F911D99272817390789F6DB
:1004B00081E0818BC05CDE4F0FB6F894DEBF0FBECB
:1004C000CDBFDF91CF911F910F91FF90EF90DF9003
:1004D000CF90BF90AF909F908F900895CF92DF9272
:1004E000EF92FF920F931F93CF93DF93EC01162FA0
:1004F000642F0E947501882309F444C08E818B30DB
:1005000031F008F43FC08551823040F03BC06A8131
:1005100070E080E090E00E94660925C00A81602FAB
:100520006F7770E080E090E00E94680920E030E0A2
:1005300040E853E40E941D0A6B017C018B81682F07
:1005400070E080E090E00E9468099B01AC01C70167
:10055000B6010E944D082DEC3CEC4CEC5DE30E9492
:100560001D0A07FD9058112389F026E636E646EE6F
:100570005FE30E941D0A20E030E040E052E40E9468
:100580004D0804C060E070E080EC9FE7DF91CF9100
:100590001F910F91FF90EF90DF90CF900895CF9231
:1005A000DF92EF92FF92CF93DF93EC0160E00E9425
:1005B0007501882381F18E818B3031F160F1855195
:1005C000823048F5688170E080E090E00E94660922
:1005D00020E030E040E853E40E941D0A6B017C01FA
:1005E0008981682F70E080E090E00E9468099B019B
:1005F000AC01C701B6010E944D082DEC3CEC4CEC5F
:100600005DE30E941D0A0BC0688170E080E090E00D
:100610000E94660904C060E070E080EC9FE7DF9113
:10062000CF91FF90EF90DF90CF900895FC01918DD6
:10063000228D892F90E0805C9F4F821B91098F73E0
:1006400099270895FC01918D828D981731F0828D44
:10065000E80FF11D858D90E008958FEF9FEF0895CD
:10066000FC01918D828D981761F0828DDF01A80FBA
:10067000B11D5D968C91928D9F5F9F73928F90E0DC
:1006800008958FEF9FEF089589E994E0892B49F051
:1006900080E090E0892B29F00E94990481110C944C
:1006A00000000895FC01848DDF01A80FB11DA35A3D
:1006B000BF4F2C91848D90E001968F739927848F82
:1006C000A689B7892C93A089B1898C9180648C9379
:1006D000938D848D981306C00288F389E02D808164
:1006E0008F7D80830895CF93DF93EC01888D8823DD
:1006F000C9F0EA89FB89808185FD05C0A889B9898F
:100700008C9186FD0FC00FB607FCF5CF808185FF69
:10071000F2CFA889B9898C9185FFEDCFCE010E94D7
:100720005203E7CFDF91CF910895EF92FF920F939D
:100730001F93CF93DF93EC0181E0888F9B8D8C8D8D
:10074000981305C0E889F989808185FD24C0F62EBB
:100750000B8D10E00F5F1F4F0F731127E02E8C8D54
:10076000E8120CC00FB607FCFACFE889F98980813E
:1007700085FFF5CFCE010E945203F1CF8B8DFE0194
:10078000E80FF11DE35AFF4FF0820B8FEA89FB89D6
:100790008081806207C0EE89FF896083E889F989DA
:1007A00080818064808381E090E0DF91CF911F9110
:1007B0000F91FF90EF900895CF92DF92EF92FF920A
:1007C0001F93CF93DF93EC016A017B01122FE8891D
:1007D000F98982E080834115514E61057105B1F0C0
:1007E00060E079E08DE390E0A70196010E948F0A16
:1007F000DA01C9010197A109B109B695A7959795A5
:100800008795AC01411580E15807A8F0E889F9897E
:10081000108260E874E88EE190E0A70196010E94E2
:100820008F0ABA01A90141505109610971097695F0
:10083000679557954795EC85FD855083EE85FF8537
:100840004083188EEC89FD891083EA89FB898081B9
:1008500080618083EA89FB89808188608083EA895E
:10086000FB89808180688083EA89FB8980818F7D14
:100870008083DF91CF911F91FF90EF90DF90CF9019
:1008800008951F920F920FB60F9211242F938F93FA
:100890009F93EF93FF93E0916A01F0916B01808148
:1008A000E0917001F091710182FD12C09081809100
:1008B00073018F5F8F7320917401821751F0E09163
:1008C0007301F0E0E65AFE4F958F8093730101C0EB
:1008D0008081FF91EF919F918F912F910F900FBE8B
:1008E0000F901F9018951F920F920FB60F92112420
:1008F0002F933F934F935F936F937F938F939F9328
:10090000AF93BF93EF93FF938AE591E00E94520368
:10091000FF91EF91BF91AF919F918F917F916F91D7
:100920005F914F913F912F910F900FBE0F901F90AD
:1009300018958AE591E00E94160321E0892B09F4BD
:1009400020E0822F0895EAE5F1E01382128288EE1A
:1009500093E0A0E0B0E084839583A683B78383E22D
:1009600091E09183808385EC90E09587848784EC87
:1009700090E09787868780EC90E0918B808B81EC6C
:1009800090E0938B828B82EC90E0958B848B86EC4D
:1009900090E0978B868B118E128E138E148E089595
:1009A00008950E947B070E94D0040E948D00C4E439
:1009B000D3E00E949A002097E1F30E944403F9CF0C
:1009C000CF92DF92EF92FF920F931F93CF93DF931B
:1009D0006C017A018B01C0E0D0E0CE15DF0589F013
:1009E000D8016D918D01D601ED91FC910190F081BE
:1009F000E02DC6010995892B11F47E0102C02196D4
:100A0000ECCFC701DF91CF911F910F91FF90EF9035
:100A1000DF90CF9008956115710579F0FB01019089
:100A20000020E9F73197AF01461B570BDC01ED9130
:100A3000FC910280F381E02D099480E090E008951C
:100A40000C940B05DC01ED91FC910190F081E02DFF
:100A500009946FE271E00C940B050F931F93CF93F1
:100A6000DF93EC010E940B058C01CE010E94290549
:100A7000800F911FDF91CF911F910F9108954F9299
:100A80005F926F927F92EF92FF920F931F93CF939B
:100A9000DF93CDB7DEB7A1970FB6F894DEBF0FBED8
:100AA000CDBF7C01FA01CB0119A2223008F42AE063
:100AB0008E010F5D1F4F422E512C612C712CBF01F6
:100AC000A30192010E948F0AF901CA010150110984
:100AD0006A3014F4605D01C0695CD8016C93232B0B
:100AE000242B252B61F7B801C7010E940B05A196A5
:100AF0000FB6F894DEBF0FBECDBFDF91CF911F912F
:100B00000F91FF90EF907F906F905F904F900895BE
:100B1000CF92DF92EF92FF920F931F93CF93DF93C9
:100B2000EC016A017B012115310579F4E881F98135
:100B30000190F081E02D642FDF91CF911F910F91F3
:100B4000FF90EF90DF90CF9009942A303105E9F4BF
:100B500077FF1AC06DE20E9422058C0144275527B9
:100B6000BA014C195D096E097F092AE0CE010E9485
:100B70003F05800F911FDF91CF911F910F91FF9043
:100B8000EF90DF90CF9008952AE0B701A601CE0143
:100B9000DF91CF911F910F91FF90EF90DF90CF9059
:100BA0000C943F054F925F926F927F928F929F922B
:100BB000AF92BF92CF92DF92EF92FF92CF93DF93EB
:100BC000EC016A017B01B22E9A01AB01C701B601AB
:100BD0000E948A0A882319F062E371E027C0260187
:100BE0003701E89477F82FEF3FEF4FE75FE7C30156
:100BF000B2010E948A0A81110DC02FEF3FEF4FE72B
:100C00005FE7C301B2010E94B90818161CF466E33D
:100C100071E00CC02FEF3FEF4FE75FE4C701B60173
:100C20000E94180A18169CF46AE371E0CE01DF9165
:100C3000CF91FF90EF90DF90CF90BF90AF909F90BB
:100C40008F907F906F905F904F900C940B052FEFDB
:100C50003FEF4FE75FECC701B6010E94B90887FD7F
:100C6000E3CF20E030E0A901C701B6010E94B90836
:100C700087FF0AC06DE2CE010E9422054C01F7FAFF
:100C8000F094F7F8F09402C0812C912CA12C60E034
:100C900070E080E09FE3AB1441F020E030E040E200
:100CA00051E40E94BE08A394F6CF9B01AC01C7019A
:100CB000B6010E944D082B013C010E9437096B01CF
:100CC0007C010E9466099B01AC01C301B2010E9434
:100CD0004C082B013C012AE0B701A601CE010E947D
:100CE0003F057C01E80CF91CBB2039F06EE371E094
:100CF000CE010E940B05E80EF91EDB2CDD2039F138
:100D000020E030E040E251E4C301B2010E941D0A3C
:100D10002B013C010E9430094B01770FAA08BB0848
:100D20002AE030E0B501A401CE010E948805E80E5A
:100D3000F91EC501B4010E9468099B01AC01C30101
:100D4000B2010E944C082B013C01DA94D7CFC701B5
:100D5000DF91CF91FF90EF90DF90CF90BF90AF9059
:100D60009F908F907F906F905F904F9008950C941C
:100D7000D2051F920F920FB60F9211242F933F931B
:100D80008F939F93AF93BF938091F8019091F90156
:100D9000A091FA01B091FB013091F70123E0230FFC
:100DA0002D3720F40196A11DB11D05C026E8230FA3
:100DB0000296A11DB11D2093F7018093F801909335
:100DC000F901A093FA01B093FB018091FC0190918D
:100DD000FD01A091FE01B091FF010196A11DB11D81
:100DE0008093FC019093FD01A093FE01B093FF015D
:100DF000BF91AF919F918F913F912F910F900FBE17
:100E00000F901F9018952FB7F8946091F80170918A
:100E1000F9018091FA019091FB012FBF08953FB72E
:100E2000F8948091FC019091FD01A091FE01B09198
:100E3000FF0126B5A89B05C02F3F19F00196A11D03
:100E4000B11D3FBFBA2FA92F982F8827820F911D60
:100E5000A11DB11DBC01CD0142E0660F771F881FA7
:100E6000991F4A95D1F708958F929F92AF92BF92A2
:100E7000CF92DF92EF92FF926B017C010E940F07ED
:100E80004B015C01C114D104E104F10401F10E94A1
:100E90004B080E940F07DC01CB0188199909AA09A8
:100EA000BB09883E9340A105B10560F321E0C21A59
:100EB000D108E108F10888EE880E83E0981EA11C95
:100EC000B11CC114D104E104F10419F7DBCFFF9088
:100ED000EF90DF90CF90BF90AF909F908F9008954C
:100EE0008230910538F0880F991F880F991F059758
:100EF0000197F1F70895789484B5826084BD84B534
:100F0000816084BD85B5826085BD85B5816085BD04
:100F1000EEE6F0E0808181608083E1E8F0E010821D
:100F2000808182608083808181608083E0E8F0E05E
:100F3000808181608083E1EBF0E080818460808348
:100F4000E0EBF0E0808181608083EAE7F0E080817F
:100F500084608083808182608083808181608083DF
:100F60008081806880831092C1000895833081F071
:100F700028F4813099F08230A1F008958730A9F0EB
:100F80008830B9F08430D1F4809180008F7D03C027
:100F9000809180008F7780938000089584B58F774B
:100FA00002C084B58F7D84BD08958091B0008F7795
:100FB00003C08091B0008F7D8093B0000895CF93DF
:100FC000DF9390E0FC01E458FF4F2491FC01E057CF
:100FD000FF4F8491882361F190E0880F991FFC01F5
:100FE000E854FF4FC591D491FC01E255FF4FA59104
:100FF000B491611109C09FB7F8948881209582232C
:101000008883EC912E230BC0623061F49FB7F89473
:101010003881822F809583238883EC912E2B2C930B
:101020009FBF06C08FB7F894E8812E2B28838FBF0F
:10103000DF91CF9108951F93CF93DF93282F30E056
:10104000F901E859FF4F8491F901E458FF4FD49119
:10105000F901E057FF4FC491CC23C9F0162F81113D
:101060000E94B607EC2FF0E0EE0FFF1FE255FF4F96
:10107000A591B4918FB7F894111105C09C91ED2FF3
:10108000E095E92302C0EC91ED2BEC938FBFDF914B
:10109000CF911F91089508955058BB27AA270E9409
:1010A00064080C94DE090E94D00938F00E94D70928
:1010B00020F039F49F3F19F426F40C94CD090EF476
:1010C000E095E7FB0C94C709E92F0E94EF0958F35C
:1010D000BA17620773078407950720F079F4A6F51D
:1010E0000C94110A0EF4E0950B2EBA2FA02D0B01D3
:1010F000B90190010C01CA01A0011124FF27591B5D
:1011000099F0593F50F4503E68F11A16F040A22F62
:10111000232F342F4427585FF3CF469537952795D3
:10112000A795F0405395C9F77EF41F16BA0B620BD2
:10113000730B840BBAF09150A1F0FF0FBB1F661F19
:10114000771F881FC2F70EC0BA0F621F731F841F5C
:1011500048F4879577956795B795F7959E3F08F082
:10116000B0CF9395880F08F09927EE0F9795879544
:1011700008950E94A30908F481E008950E94D2080E
:101180000C94DE090E94D70958F00E94D00940F063
:1011900029F45F3F29F00C94C70951110C94120AED
:1011A0000C94CD090E94EF0968F39923B1F35523FC
:1011B00091F3951B550BBB27AA276217730784076A
:1011C00038F09F5F5F4F220F331F441FAA1FA9F300
:1011D00035D00E2E3AF0E0E832D091505040E695EE
:1011E000001CCAF72BD0FE2F29D0660F771F881F4F
:1011F000BB1F261737074807AB07B0E809F0BB0B42
:10120000802DBF01FF2793585F4F3AF09E3F510555
:1012100078F00C94C7090C94120A5F3FE4F3983EEF
:10122000D4F3869577956795B795F7959F5FC9F73E
:10123000880F911D9695879597F90895E1E0660FBF
:10124000771F881FBB1F621773078407BA0720F038
:10125000621B730B840BBA0BEE1F88F7E0950895A1
:101260000E9437096894B1110C94120A08950E94E3
:10127000F70988F09F5798F0B92F9927B751B0F028
:10128000E1F0660F771F881F991F1AF0BA95C9F70A
:1012900014C0B13091F00E94110AB1E008950C948D
:1012A000110A672F782F8827B85F39F0B93FCCF340
:1012B000869577956795B395D9F73EF49095809587
:1012C000709561957F4F8F4F9F4F0895E89409C0A7
:1012D00097FB3EF490958095709561957F4F8F4F69
:1012E0009F4F9923A9F0F92F96E9BB279395F6957F
:1012F000879577956795B795F111F8CFFAF4BB0FFD
:1013000011F460FF1BC06F5F7F4F8F4F9F4F16C060
:10131000882311F096E911C0772321F09EE8872FEA
:10132000762F05C0662371F096E8862F70E060E0A6
:101330002AF09A95660F771F881FDAF7880F96951F
:10134000879597F90895990F0008550FAA0BE0E8C3
:10135000FEEF16161706E807F907C0F01216130677
:10136000E407F50798F0621B730B840B950B39F4B7
:101370000A2661F0232B242B252B21F408950A261D
:1013800009F4A140A6958FEF811D811D089597F95D
:101390009F6780E870E060E008959FEF80EC08951B
:1013A00000240A9416161706180609060895002444
:1013B0000A9412161306140605060895092E0394BE
:1013C000000C11F4882352F0BB0F40F4BF2B11F432
:1013D00060FF04C06F5F7F4F8F4F9F4F089557FD91
:1013E0009058440F551F59F05F3F71F04795880F93
:1013F00097FB991F61F09F3F79F08795089512162A
:1014000013061406551FF2CF4695F1DF08C01616D5
:1014100017061806991FF1CF869571056105089486
:101420000895E894BB2766277727CB0197F908959D
:101430000E94A30908F48FEF08950E94300A0C94CB
:10144000DE090E94D00938F00E94D70920F09523C8
:1014500011F00C94C7090C94CD0911240C94120AB4
:101460000E94EF0970F3959FC1F3950F50E0551F4F
:10147000629FF001729FBB27F00DB11D639FAA27E9
:10148000F00DB11DAA1F649F6627B00DA11D661F38
:10149000829F2227B00DA11D621F739FB00DA11D59
:1014A000621F839FA00D611D221F749F3327A00D13
:1014B000611D231F849F600D211D822F762F6A2FAF
:1014C00011249F5750409AF0F1F088234AF0EE0F14
:1014D000FF1FBB1F661F771F881F91505040A9F741
:1014E0009E3F510580F00C94C7090C94120A5F3F8F
:1014F000E4F3983ED4F3869577956795B795F7957D
:10150000E7959F5FC1F7FE2B880F911D96958795F4
:1015100097F908950E94A309880B990B0895A1E2F9
:101520001A2EAA1BBB1BFD010DC0AA1FBB1FEE1F5D
:10153000FF1FA217B307E407F50720F0A21BB30BA8
:10154000E40BF50B661F771F881F991F1A9469F724
:1015500060957095809590959B01AC01BD01CF0180
:101560000895EE0FFF1F0590F491E02D0994F89473
:02157000FFCFAB
:1015720048756D69646974793A200020252C2054DD
:10158200656D703A20002043656C736975730000C5
:101592000000009503E00416033003220373030DD9
:1015A2000A006E616E00696E66006F7666002E003C
:00000001FF
