:100000000C9435000C945D000C945D000C945D0024
:100010000C945D000C945D000C945D000C945D00EC
:100020000C945D000C945D000C945D000C945D00DC
:100030000C945D000C945D000C945D000C945D00CC
:100040000C9437030C945D000C94A3010C94D5011F
:100050000C945D000C945D000C945D000C945D00AC
:100060000C945D000C945D00050211241FBECFEFBF
:10007000D8E0DEBFCDBF11E0A0E0B1E0EAECF8E0EF
:1000800002C005900D92A232B107D9F721E0A2E299
:10009000B1E001C01D92A83CB207E1F710E0C5E352
:1000A000D0E004C02197FE010E945D04C433D10753
:1000B000C9F70E9433020C9463040C94000026E0FC
:1000C00040E855E260E070E082E291E00C943E018D
:1000D0008EE00E941D044AE050E0BC0182E291E003
:1000E0000E94200368EE73E080E090E00C94A60389
:1000F000FC01918D228D892F90E0805C9F4F821BA7
:1001000091098F7399270895FC01918D828D98171D
:1001100031F0828DE80FF11D858D90E008958FEF0D
:100120009FEF0895FC01918D828D981761F0828D6B
:10013000DF01A80FB11D5D968C91928D9F5F9F731B
:10014000928F90E008958FEF9FEF08958BEF91E0ED
:10015000892B49F080E090E0892B29F00E94FB0177
:1001600081110C9400000895FC01848DDF01A80F1B
:10017000B11DA35ABF4F2C91848D90E001968F73CF
:100180009927848FA689B7892C93A089B1898C91EE
:1001900080648C93938D848D981306C00288F389B4
:1001A000E02D80818F7D80830895CF93DF93EC01D4
:1001B000888D8823C9F0EA89FB89808185FD05C087
:1001C000A889B9898C9186FD0FC00FB607FCF5CFC1
:1001D000808185FFF2CFA889B9898C9185FFEDCF09
:1001E000CE010E94B400E7CFDF91CF910895EF9246
:1001F000FF920F931F93CF93DF93EC0181E0888FE1
:100200009B8D8C8D981305C0E889F989808185FDC7
:1002100024C0F62E0B8D10E00F5F1F4F0F731127B8
:10022000E02E8C8DE8120CC00FB607FCFACFE889DF
:10023000F989808185FFF5CFCE010E94B400F1CF0E
:100240008B8DFE01E80FF11DE35AFF4FF0820B8FFB
:10025000EA89FB898081806207C0EE89FF8960831B
:10026000E889F98980818064808381E090E0DF9172
:10027000CF911F910F91FF90EF900895CF92DF9251
:10028000EF92FF921F93CF93DF93EC016A017B0102
:10029000122FE889F98982E080834115514E61056A
:1002A0007105B1F060E079E08DE390E0A70196017F
:1002B0000E943B04DA01C9010197A109B109B69571
:1002C000A79597958795AC01411580E15807A8F04F
:1002D000E889F989108260E874E88EE190E0A7016E
:1002E00096010E943B04BA01A901415051096109DC
:1002F00071097695679557954795EC85FD855083EF
:10030000EE85FF854083188EEC89FD891083EA898C
:10031000FB89808180618083EA89FB898081886094
:100320008083EA89FB89808180688083EA89FB89F0
:1003300080818F7D8083DF91CF911F91FF90EF901F
:10034000DF90CF9008951F920F920FB60F92112455
:100350002F938F939F93EF93FF93E0913201F0914E
:1003600033018081E0913801F091390182FD12C0A2
:10037000908180913B018F5F8F7320913C018217A8
:1003800051F0E0913B01F0E0EE5DFE4F958F8093E0
:100390003B0101C08081FF91EF919F918F912F913F
:1003A0000F900FBE0F901F9018951F920F920FB6CF
:1003B0000F9211242F933F934F935F936F937F93EB
:1003C0008F939F93AF93BF93EF93FF9382E291E05C
:1003D0000E94B400FF91EF91BF91AF919F918F91D7
:1003E0007F916F915F914F913F912F910F900FBE31
:1003F0000F901F90189582E291E00E94780021E012
:10040000892B09F420E0822F0895E2E2F1E01382C3
:10041000128288EE93E0A0E0B0E084839583A68307
:10042000B78385E091E09183808385EC90E09587A8
:10043000848784EC90E09787868780EC90E0918BAE
:10044000808B81EC90E0938B828B82EC90E0958B9B
:10045000848B86EC90E0978B868B118E128E138E98
:10046000148E089508950E94E2030E9432020E94B1
:100470005F00C6EAD0E00E9468002097E1F30E9486
:10048000A600F9CFCF92DF92EF92FF920F931F93C6
:10049000CF93DF936C017A018B01C0E0D0E0CE15E1
:1004A000DF0589F0D8016D918D01D601ED91FC91A8
:1004B0000190F081E02DC6010995892B11F47E0190
:1004C00002C02196ECCFC701DF91CF911F910F9110
:1004D000FF90EF90DF90CF9008956115710579F04E
:1004E000FB0101900020E9F73197AF01461B570B44
:1004F000DC01ED91FC910280F381E02D099480E014
:1005000090E00895DC01ED91FC910190F081E02DE7
:10051000099461E171E00C946D024F925F926F92C9
:100520007F92EF92FF920F931F93CF93DF93CDB7FC
:10053000DEB7A1970FB6F894DEBF0FBECDBF7C012A
:10054000FA01CB0119A2223008F42AE08E010F5DD6
:100550001F4F422E512C612C712CBF01A30192011F
:100560000E943B04F901CA01015011096A3014F4D8
:10057000605D01C0695CD8016C93232B242B252B73
:1005800061F7B801C7010E946D02A1960FB6F894F9
:10059000DEBF0FBECDBFDF91CF911F910F91FF90B6
:1005A000EF907F906F905F904F900895CF92DF9281
:1005B000EF92FF920F931F93CF93DF93EC016A01A9
:1005C0007B012115310579F4E881F9810190F081F1
:1005D000E02D642FDF91CF911F910F91FF90EF904D
:1005E000DF90CF9009942A303105E9F477FF1AC0E3
:1005F0006DE20E9482028C0144275527BA014C19F2
:100600005D096E097F092AE0CE010E948D02800FEC
:10061000911FDF91CF911F910F91FF90EF90DF908D
:10062000CF9008952AE0B701A601CE01DF91CF91C6
:100630001F910F91FF90EF90DF90CF900C948D025F
:100640000F931F93CF93DF93EC019A01AB01770FC8
:10065000660B770B0E94D6028C01CE010E948902A4
:10066000800F911FDF91CF911F910F9108951F92DD
:100670000F920FB60F9211242F933F938F939F9356
:10068000AF93BF938091C0019091C101A091C2012D
:10069000B091C3013091BF0123E0230F2D3720F427
:1006A0000196A11DB11D05C026E8230F0296A11DCC
:1006B000B11D2093BF018093C0019093C101A0930D
:1006C000C201B093C3018091C4019091C501A09172
:1006D000C601B091C7010196A11DB11D8093C4014F
:1006E0009093C501A093C601B093C701BF91AF918C
:1006F0009F918F913F912F910F900FBE0F901F9060
:1007000018953FB7F8948091C4019091C501A091CC
:10071000C601B091C70126B5A89B05C02F3F19F0AF
:100720000196A11DB11D3FBFBA2FA92F982F882771
:10073000820F911DA11DB11DBC01CD0142E0660FCC
:10074000771F881F991F4A95D1F708958F929F921E
:10075000AF92BF92CF92DF92EF92FF926B017C013A
:100760000E9481034B015C01C114D104E104F10436
:1007700001F10E943A040E948103DC01CB01881937
:100780009909AA09BB09883E9340A105B10560F308
:1007900021E0C21AD108E108F10888EE880E83E052
:1007A000981EA11CB11CC114D104E104F10419F775
:1007B000DBCFFF90EF90DF90CF90BF90AF909F90F6
:1007C0008F900895789484B5826084BD84B58160EB
:1007D00084BD85B5826085BD85B5816085BDEEE649
:1007E000F0E0808181608083E1E8F0E01082808128
:1007F00082608083808181608083E0E8F0E0808196
:1008000081608083E1EBF0E0808184608083E0EBB5
:10081000F0E0808181608083EAE7F0E0808184609D
:1008200080838081826080838081816080838081F9
:10083000806880831092C10008958E3008F08E5039
:1008400087702091000190E4299F90011124822B50
:1008500080937C0080917A00806480937A008091FC
:100860007A0086FDFCCF809178002091790090E09D
:10087000922B08950895A1E21A2EAA1BBB1BFD011D
:100880000DC0AA1FBB1FEE1FFF1FA217B307E4076F
:10089000F50720F0A21BB30BE40BF50B661F771FC7
:1008A000881F991F1A9469F76095709580959095A7
:1008B0009B01AC01BD01CF010895EE0FFF1F059014
:0A08C000F491E02D0994F894FFCFA5
:1008CA000100000000F7004202780092008400D57F
:1008DA00000D0A006E616E00696E66006F76660032
:0208EA002E00DE
:00000001FF
