:100000000C9462000C948A000C948A000C948A0070
:100010000C948A000C948A000C948A000C948A0038
:100020000C948A000C948A000C948A000C948A0028
:100030000C948A000C948A000C948A000C948A0018
:100040000C94CD020C948A000C94D8010C940A02F2
:100050000C948A000C948A000C948A000C948A00F8
:100060000C948A000C948A00000000080002010031
:100070000003040700000000000000000102040863
:100080001020408001020408102001020408102002
:10009000040404040404040402020202020203032E
:1000A00003030303000000002300260029000000D2
:1000B0000000250028002B0000000000240027007D
:1000C0002A003A0211241FBECFEFD8E0DEBFCDBF19
:1000D00011E0A0E0B1E0E8EDF8E002C005900D927B
:1000E000A233B107D9F721E0A2E3B1E001C01D922C
:1000F000A83DB207E1F710E0C2E6D0E004C02197C6
:10010000FE010E946404C136D107C9F70E9468024B
:100110000C946A040C94000026E040E855E260E08C
:1001200070E082E391E00E94730160E08EE00C9445
:10013000DC038EE00E941804019719F460E071E07E
:1001400002C067E071E082E391E00E94BB0268EECA
:1001500073E080E090E00C943C03FC01918D228DD3
:10016000892F90E0805C9F4F821B91098F739927A4
:100170000895FC01918D828D981731F0828DE80FE2
:10018000F11D858D90E008958FEF9FEF0895FC019C
:10019000918D828D981761F0828DDF01A80FB11DBE
:1001A0005D968C91928D9F5F9F73928F90E00895E2
:1001B0008FEF9FEF089580E392E0892B49F080E074
:1001C00090E0892B29F00E94300281110C940000EC
:1001D0000895FC01848DDF01A80FB11DA35ABF4F04
:1001E0002C91848D90E001968F739927848FA68936
:1001F000B7892C93A089B1898C9180648C93938D5D
:10020000848D981306C00288F389E02D80818F7D4C
:1002100080830895CF93DF93EC01888D8823C9F004
:10022000EA89FB89808185FD05C0A889B9898C91FF
:1002300086FD0FC00FB607FCF5CF808185FFF2CF9A
:10024000A889B9898C9185FFEDCFCE010E94E90084
:10025000E7CFDF91CF910895EF92FF920F931F9315
:10026000CF93DF93EC0181E0888F9B8D8C8D981369
:1002700005C0E889F989808185FD24C0F62E0B8DA3
:1002800010E00F5F1F4F0F731127E02E8C8DE812C7
:100290000CC00FB607FCFACFE889F989808185FF89
:1002A000F5CFCE010E94E900F1CF8B8DFE01E80F62
:1002B000F11DE35AFF4FF0820B8FEA89FB898081A1
:1002C000806207C0EE89FF896083E889F9898081AF
:1002D0008064808381E090E0DF91CF911F910F9146
:1002E000FF90EF900895CF92DF92EF92FF921F93CD
:1002F000CF93DF93EC016A017B01122FE889F98922
:1003000082E080834115514E61057105B1F060E0D6
:1003100079E08DE390E0A70196010E944204DA01A2
:10032000C9010197A109B109B695A7959795879538
:10033000AC01411580E15807A8F0E889F9891082DD
:1003400060E874E88EE190E0A70196010E94420403
:10035000BA01A90141505109610971097695679562
:1003600057954795EC85FD855083EE85FF85408345
:10037000188EEC89FD891083EA89FB898081806170
:100380008083EA89FB89808188608083EA89FB8990
:10039000808180688083EA89FB8980818F7D80836A
:1003A000DF91CF911F91FF90EF90DF90CF90089554
:1003B0001F920F920FB60F9211242F938F939F933A
:1003C000EF93FF93E0914201F09143018081E0912E
:1003D0004801F091490182FD12C0908180914B014A
:1003E0008F5F8F7320914C01821751F0E0914B0188
:1003F000F0E0EE5CFE4F958F80934B0101C0808151
:10040000FF91EF919F918F912F910F900FBE0F90C1
:100410001F9018951F920F920FB60F9211242F93D1
:100420003F934F935F936F937F938F939F93AF937C
:10043000BF93EF93FF9382E391E00E94E900FF9165
:10044000EF91BF91AF919F918F917F916F915F914C
:100450004F913F912F910F900FBE0F901F901895C5
:1004600082E391E00E94AD0021E0892B09F420E0B5
:10047000822F0895E2E3F1E01382128288EE93E086
:10048000A0E0B0E084839583A683B78384E191E004
:100490009183808385EC90E09587848784EC90E05D
:1004A0009787868780EC90E0918B808B81EC90E041
:1004B000938B828B82EC90E0958B848B86EC90E022
:1004C000978B868B118E128E138E148E089508953D
:1004D0000E9478030E9467020E948C00CBEDD0E05E
:1004E0000E9499002097E1F30E94DB00F9CFCF92A0
:1004F000DF92EF92FF920F931F93CF93DF936C01E4
:100500007A018B01C0E0D0E0CE15DF0589F0D8017B
:100510006D918D01D601ED91FC910190F081E02D5E
:10052000C6010995892B11F47E0102C02196ECCFFA
:10053000C701DF91CF911F910F91FF90EF90DF9056
:10054000CF9008956115710579F0FB0101900020AD
:10055000E9F73197AF01461B570BDC01ED91FC9198
:100560000280F381E02D099480E090E0089560E23C
:1005700071E00C94A2020F931F93CF93DF93EC01D1
:100580000E94A2028C01CE010E94B702800F911F2F
:10059000DF91CF911F910F9108951F920F920FB687
:1005A0000F9211242F933F938F939F93AF93BF93F9
:1005B0008091D0019091D101A091D201B091D3014D
:1005C0003091CF0123E0230F2D3720F40196A11D98
:1005D000B11D05C026E8230F0296A11DB11D209371
:1005E000CF018093D0019093D101A093D201B09319
:1005F000D3018091D4019091D501A091D601B09101
:10060000D7010196A11DB11D8093D4019093D5010E
:10061000A093D601B093D701BF91AF919F918F91D5
:100620003F912F910F900FBE0F901F9018953FB7DD
:10063000F8948091D4019091D501A091D601B09108
:10064000D70126B5A89B05C02F3F19F00196A11D23
:10065000B11D3FBFBA2FA92F982F8827820F911D58
:10066000A11DB11DBC01CD0142E0660F771F881F9F
:10067000991F4A95D1F708958F929F92AF92BF929A
:10068000CF92DF92EF92FF926B017C010E941703E1
:100690004B015C01C114D104E104F10401F10E9499
:1006A00041040E941703DC01CB0188199909AA09AA
:1006B000BB09883E9340A105B10560F321E0C21A51
:1006C000D108E108F10888EE880E83E0981EA11C8D
:1006D000B11CC114D104E104F10419F7DBCFFF9080
:1006E000EF90DF90CF90BF90AF909F908F90089544
:1006F000789484B5826084BD84B5816084BD85B5FD
:10070000826085BD85B5816085BDEEE6F0E08081C3
:1007100081608083E1E8F0E01082808182608083E4
:10072000808181608083E0E8F0E080818160808367
:10073000E1EBF0E0808184608083E0EBF0E0808199
:1007400081608083EAE7F0E080818460808380813B
:1007500082608083808181608083808180688083E3
:100760001092C1000895833081F028F4813099F00F
:100770008230A1F008958730A9F08830B9F0843034
:10078000D1F4809180008F7D03C0809180008F77AD
:1007900080938000089584B58F7702C084B58F7DE3
:1007A00084BD08958091B0008F7703C08091B00020
:1007B0008F7D8093B0000895CF93DF9390E0FC018C
:1007C000E458FF4F2491FC01E057FF4F84918823A8
:1007D00061F190E0880F991FFC01E854FF4FC5912B
:1007E000D491FC01E255FF4FA591B491611109C06C
:1007F0009FB7F8948881209582238883EC912E23DB
:100800000BC0623061F49FB7F8943881822F8095D5
:1008100083238883EC912E2B2C939FBF06C08FB728
:10082000F894E8812E2B28838FBFDF91CF91089514
:10083000CF93DF93282F30E0F901E859FF4F8491DF
:10084000F901E458FF4FD491F901E057FF4FC491EB
:10085000CC2391F081110E94B303EC2FF0E0EE0F56
:10086000FF1FEC55FF4FA591B491EC91ED2381E072
:1008700090E021F480E002C080E090E0DF91CF9131
:1008800008950895A1E21A2EAA1BBB1BFD010DC0FD
:10089000AA1FBB1FEE1FFF1FA217B307E407F50730
:1008A00020F0A21BB30BE40BF50B661F771F881F0C
:1008B000991F1A9469F760957095809590959B01A2
:1008C000AC01BD01CF010895EE0FFF1F0590F4911B
:0808D000E02D0994F894FFCF1C
:1008D80041637469766500496E6163746976650081
:1008E800000000002C017702AD00C700B9000A0122
:1008F8000D0A006E616E00696E66006F7666002EE6
:020908000000ED
:00000001FF
